{
    "contractName": "Storage",
    "abi": [
        {
            "inputs": [],
            "name": "retreive",
            "outputs": [
                {
                    "internalType": "uint256",
                    "name": "",
                    "type": "uint256"
                }
            ],
            "stateMutability": "view",
            "type": "function"
        },
        {
            "inputs": [
                {
                    "internalType": "uint256",
                    "name": "num",
                    "type": "uint256"
                }
            ],
            "name": "store",
            "outputs": [],
            "stateMutability": "nonpayable",
            "type": "function"
        }
    ],
    "bytecode": "6080604052348015600f57600080fd5b5060ac8061001e6000396000f3fe6080604052348015600f57600080fd5b506004361060325760003560e01c80636057361d146037578063b05784b8146053575b600080fd5b605160048036036020811015604b57600080fd5b5035606b565b005b60596070565b60408051918252519081900360200190f35b600055565b6000549056fea2646970667358221220ec82b725534378fedab8b6afad53d33bc93a159fb5b88674bd77553884f7d8a264736f6c63430006080033",
    "sourcePath": "d:/GitHub/LearningBlockChain/App/SimpleAssetManagement/Solidity_Project/Contracts/Storage.sol",
    "compiler": {
        "name": "solc",
        "version": "0.6.8+commit.0bbfe453"
    },
    "functionHashes": {
        "retreive()": "b05784b8",
        "store(uint256)": "6057361d"
    },
    "gasEstimates": {
        "creation": {
            "codeDepositCost": "34400",
            "executionCost": "87",
            "totalCost": "34487"
        },
        "external": {
            "retreive()": "998",
            "store(uint256)": "20167"
        }
    }
}